{
  "_format": "hh-sol-artifact-1",
  "contractName": "DiscreteStakingRewards",
  "sourceName": "contracts/Stacking.sol",
  "abi": [
    {
      "inputs": [
        {
          "internalType": "address",
          "name": "_stakingToken",
          "type": "address"
        },
        {
          "internalType": "address",
          "name": "_rewardToken",
          "type": "address"
        }
      ],
      "stateMutability": "nonpayable",
      "type": "constructor"
    },
    {
      "inputs": [
        {
          "internalType": "address",
          "name": "",
          "type": "address"
        }
      ],
      "name": "balanceOf",
      "outputs": [
        {
          "internalType": "uint256",
          "name": "",
          "type": "uint256"
        }
      ],
      "stateMutability": "view",
      "type": "function"
    },
    {
      "inputs": [
        {
          "internalType": "address",
          "name": "account",
          "type": "address"
        }
      ],
      "name": "calculateRewardsEarned",
      "outputs": [
        {
          "internalType": "uint256",
          "name": "",
          "type": "uint256"
        }
      ],
      "stateMutability": "view",
      "type": "function"
    },
    {
      "inputs": [],
      "name": "claim",
      "outputs": [
        {
          "internalType": "uint256",
          "name": "",
          "type": "uint256"
        }
      ],
      "stateMutability": "nonpayable",
      "type": "function"
    },
    {
      "inputs": [],
      "name": "rewardToken",
      "outputs": [
        {
          "internalType": "contract IERC20",
          "name": "",
          "type": "address"
        }
      ],
      "stateMutability": "view",
      "type": "function"
    },
    {
      "inputs": [
        {
          "internalType": "uint256",
          "name": "amount",
          "type": "uint256"
        }
      ],
      "name": "stake",
      "outputs": [],
      "stateMutability": "nonpayable",
      "type": "function"
    },
    {
      "inputs": [],
      "name": "stakingToken",
      "outputs": [
        {
          "internalType": "contract IERC20",
          "name": "",
          "type": "address"
        }
      ],
      "stateMutability": "view",
      "type": "function"
    },
    {
      "inputs": [],
      "name": "totalSupply",
      "outputs": [
        {
          "internalType": "uint256",
          "name": "",
          "type": "uint256"
        }
      ],
      "stateMutability": "view",
      "type": "function"
    },
    {
      "inputs": [
        {
          "internalType": "uint256",
          "name": "amount",
          "type": "uint256"
        }
      ],
      "name": "unstake",
      "outputs": [],
      "stateMutability": "nonpayable",
      "type": "function"
    },
    {
      "inputs": [
        {
          "internalType": "uint256",
          "name": "reward",
          "type": "uint256"
        }
      ],
      "name": "updateRewardIndex",
      "outputs": [],
      "stateMutability": "nonpayable",
      "type": "function"
    }
  ],
  "bytecode": "0x60c060405234801561001057600080fd5b50604051610d98380380610d9883398181016040528101906100329190610104565b8173ffffffffffffffffffffffffffffffffffffffff1660808173ffffffffffffffffffffffffffffffffffffffff16815250508073ffffffffffffffffffffffffffffffffffffffff1660a08173ffffffffffffffffffffffffffffffffffffffff16815250505050610144565b600080fd5b600073ffffffffffffffffffffffffffffffffffffffff82169050919050565b60006100d1826100a6565b9050919050565b6100e1816100c6565b81146100ec57600080fd5b50565b6000815190506100fe816100d8565b92915050565b6000806040838503121561011b5761011a6100a1565b5b6000610129858286016100ef565b925050602061013a858286016100ef565b9150509250929050565b60805160a051610c13610185600039600081816101c60152818161045f01526106b90152600081816103200152818161051e01526106150152610c136000f3fe608060405234801561001057600080fd5b50600436106100935760003560e01c806370a082311161006657806370a082311461010c57806372f702f31461013c5780638b0867641461015a578063a694fc3a1461018a578063f7c618c1146101a657610093565b80630dcc4b441461009857806318160ddd146100b45780632e17de78146100d25780634e71d92d146100ee575b600080fd5b6100b260048036038101906100ad9190610874565b6101c4565b005b6100bc6102a1565b6040516100c991906108b0565b60405180910390f35b6100ec60048036038101906100e79190610874565b6102a7565b005b6100f66103c0565b60405161010391906108b0565b60405180910390f35b61012660048036038101906101219190610929565b610504565b60405161013391906108b0565b60405180910390f35b61014461051c565b60405161015191906109b5565b60405180910390f35b610174600480360381019061016f9190610929565b610540565b60405161018191906108b0565b60405180910390f35b6101a4600480360381019061019f9190610874565b61059c565b005b6101ae6106b7565b6040516101bb91906109b5565b60405180910390f35b7f000000000000000000000000000000000000000000000000000000000000000073ffffffffffffffffffffffffffffffffffffffff166323b872dd3330846040518463ffffffff1660e01b8152600401610221939291906109df565b6020604051808303816000875af1158015610240573d6000803e3d6000fd5b505050506040513d601f19601f820116820180604052508101906102649190610a4e565b50600154670de0b6b3a76400008261027c9190610aaa565b6102869190610b1b565b600260008282546102979190610b4c565b9250508190555050565b60015481565b6102b0336106db565b806000803373ffffffffffffffffffffffffffffffffffffffff1673ffffffffffffffffffffffffffffffffffffffff16815260200190815260200160002060008282546102fe9190610b80565b9250508190555080600160008282546103179190610b80565b925050819055507f000000000000000000000000000000000000000000000000000000000000000073ffffffffffffffffffffffffffffffffffffffff1663a9059cbb33836040518363ffffffff1660e01b8152600401610379929190610bb4565b6020604051808303816000875af1158015610398573d6000803e3d6000fd5b505050506040513d601f19601f820116820180604052508101906103bc9190610a4e565b5050565b60006103cb336106db565b6000600460003373ffffffffffffffffffffffffffffffffffffffff1673ffffffffffffffffffffffffffffffffffffffff16815260200190815260200160002054905060008111156104fd576000600460003373ffffffffffffffffffffffffffffffffffffffff1673ffffffffffffffffffffffffffffffffffffffff168152602001908152602001600020819055507f000000000000000000000000000000000000000000000000000000000000000073ffffffffffffffffffffffffffffffffffffffff1663a9059cbb33836040518363ffffffff1660e01b81526004016104b8929190610bb4565b6020604051808303816000875af11580156104d7573d6000803e3d6000fd5b505050506040513d601f19601f820116820180604052508101906104fb9190610a4e565b505b8091505090565b60006020528060005260406000206000915090505481565b7f000000000000000000000000000000000000000000000000000000000000000081565b600061054b82610782565b600460008473ffffffffffffffffffffffffffffffffffffffff1673ffffffffffffffffffffffffffffffffffffffff168152602001908152602001600020546105959190610b4c565b9050919050565b6105a5336106db565b806000803373ffffffffffffffffffffffffffffffffffffffff1673ffffffffffffffffffffffffffffffffffffffff16815260200190815260200160002060008282546105f39190610b4c565b92505081905550806001600082825461060c9190610b4c565b925050819055507f000000000000000000000000000000000000000000000000000000000000000073ffffffffffffffffffffffffffffffffffffffff166323b872dd3330846040518463ffffffff1660e01b8152600401610670939291906109df565b6020604051808303816000875af115801561068f573d6000803e3d6000fd5b505050506040513d601f19601f820116820180604052508101906106b39190610a4e565b5050565b7f000000000000000000000000000000000000000000000000000000000000000081565b6106e481610782565b600460008373ffffffffffffffffffffffffffffffffffffffff1673ffffffffffffffffffffffffffffffffffffffff16815260200190815260200160002060008282546107329190610b4c565b92505081905550600254600360008373ffffffffffffffffffffffffffffffffffffffff1673ffffffffffffffffffffffffffffffffffffffff1681526020019081526020016000208190555050565b6000806000808473ffffffffffffffffffffffffffffffffffffffff1673ffffffffffffffffffffffffffffffffffffffff168152602001908152602001600020549050670de0b6b3a7640000600360008573ffffffffffffffffffffffffffffffffffffffff1673ffffffffffffffffffffffffffffffffffffffff1681526020019081526020016000205460025461081c9190610b80565b826108279190610aaa565b6108319190610b1b565b915050919050565b600080fd5b6000819050919050565b6108518161083e565b811461085c57600080fd5b50565b60008135905061086e81610848565b92915050565b60006020828403121561088a57610889610839565b5b60006108988482850161085f565b91505092915050565b6108aa8161083e565b82525050565b60006020820190506108c560008301846108a1565b92915050565b600073ffffffffffffffffffffffffffffffffffffffff82169050919050565b60006108f6826108cb565b9050919050565b610906816108eb565b811461091157600080fd5b50565b600081359050610923816108fd565b92915050565b60006020828403121561093f5761093e610839565b5b600061094d84828501610914565b91505092915050565b6000819050919050565b600061097b610976610971846108cb565b610956565b6108cb565b9050919050565b600061098d82610960565b9050919050565b600061099f82610982565b9050919050565b6109af81610994565b82525050565b60006020820190506109ca60008301846109a6565b92915050565b6109d9816108eb565b82525050565b60006060820190506109f460008301866109d0565b610a0160208301856109d0565b610a0e60408301846108a1565b949350505050565b60008115159050919050565b610a2b81610a16565b8114610a3657600080fd5b50565b600081519050610a4881610a22565b92915050565b600060208284031215610a6457610a63610839565b5b6000610a7284828501610a39565b91505092915050565b7f4e487b7100000000000000000000000000000000000000000000000000000000600052601160045260246000fd5b6000610ab58261083e565b9150610ac08361083e565b9250828202610ace8161083e565b91508282048414831517610ae557610ae4610a7b565b5b5092915050565b7f4e487b7100000000000000000000000000000000000000000000000000000000600052601260045260246000fd5b6000610b268261083e565b9150610b318361083e565b925082610b4157610b40610aec565b5b828204905092915050565b6000610b578261083e565b9150610b628361083e565b9250828201905080821115610b7a57610b79610a7b565b5b92915050565b6000610b8b8261083e565b9150610b968361083e565b9250828203905081811115610bae57610bad610a7b565b5b92915050565b6000604082019050610bc960008301856109d0565b610bd660208301846108a1565b939250505056fea26469706673582212206b7d9efecf529af6c99ab50d05ff4dfc83f51b5129f7c2425a069228a8de9a0b64736f6c63430008130033",
  "linkReferences": {},
  "deployedLinkReferences": {}
}